:100000000C9452030C94C2140C949B140C947A0319
:100010000C947A030C947A030C94011A0C947A03CE
:100020000C947A030C947A030C947A030C947A035C
:100030000C947A030C947A030C947A030C947A034C
:100040000C9451140C947A030C9467150C9441157C
:100050000C947A030C947A030C947A030C947A032C
:100060000C94970C0C947A0300407A10F35A00A079
:10007000724E18090010A5D4E80000E87648170071
:1000800000E40B54020000CA9A3B000000E1F505B1
:10009000000080969800000040420F000000A086FB
:1000A00001000000102700000000E803000000002D
:1000B0006400000000000A000000000001000000D1
:1000C00000002C76D888DC674F0823DFC1DFAE59EB
:1000D000E1B1B796E5E3E453C63AE651997696E87E
:1000E000E6C28426EB898C9B62ED407C6FFCEFBC02
:1000F0009C9F40F2BAA56FA5F490055A2AF75C932D
:100100006B6CF9676DC11BFCE0E40D47FEF520E662
:10011000B500D0ED902E0300943577050080841E45
:10012000080000204E0A000000C80C333333330FA0
:10013000986E12831141EF8D2114893BE65516CF3D
:10014000FEE6DB18D1844B381BF77C1D901DA4BB49
:10015000E424203284725E228100C9F124ECA1E5FE
:100160003D2754534D3A494E49540A002154534DAA
:100170003A494E49543A545350204641494C0A009A
:1001800054534D3A494E49543A545350204F4B0A18
:100190000054534D3A465041520A002154534D3AAF
:1001A000465041523A4E4F205245504C590A002178
:1001B00054534D3A465041523A4641494C0A005434
:1001C000534D3A465041523A4F4B0A0054534D3A20
:1001D00049443A5245510A0054534D3A49440A00A1
:1001E0002154534D3A49443A4641494C0A0054532C
:1001F0004D3A49443A4F4B0A0054534D3A55504CEE
:100200000A002154534D3A55504C3A4641494C0A44
:100210000054534D3A55504C3A444757432C4F3DA8
:1002200025752C4E3D25750A0054534D3A55504CBA
:100230003A4F4B0A0054534D3A52454144593A49BA
:10024000443D25752C5041523D25752C4449533D64
:1002500025750A002154534D3A52454144593A55A7
:10026000504C204641494C2C534E500A0054534D9B
:100270003A4641494C3A4449530A0054534D3A4690
:1002800041494C3A434E543D25750A0054534D3A6A
:100290004641494C3A52452D494E49540A0054535F
:1002A000463A5349443A4F4B2C49443D25750A0080
:1002B000215453463A5349443A4641494C2C494407
:1002C0003D25750A00215453463A5254453A4E3260
:1002D0004E204641494C0A005453463A5254453A3E
:1002E0004E324E204F4B0A00215453463A52544549
:1002F0003A46504152204143544956450A00215440
:1003000053463A534E443A544E520A0025735453BE
:10031000463A4D53473A53454E442C25752D257585
:100320002D25752D25752C733D25752C633D257563
:100330002C743D25752C70743D25752C6C3D2575F0
:100340002C73673D25752C66743D25752C73743DA3
:1003500025733A25730A004D434F3A5245473A52A6
:1003600045510A005453463A5452493A5453420AAA
:10037000005453463A5444493A54534C0A004D43AE
:100380004F3A534C503A5755503D25690A004D435A
:100390004F3A534C503A4D533D256C750A00214D50
:1003A000434F3A534C503A544E520A004D434F3A41
:1003B000534C503A4D533D256C752C534D533D25B0
:1003C000752C49313D25752C4D313D25752C493213
:1003D0003D25752C4D323D25750A00322E332E31C8
:1003E0000A00207C5F5C2F602C0A0702200220B2EA
:1003F0008710034001200024022210022202022062
:1004000002220022200202202227101341010101B2
:1004100003222030402030520340221402031052A5
:100420002402217101001010121012221010022457
:1004300001010322030020010100322037121001C4
:100440002132260128403222121012122243222485
:10045000121001222470C122240F0F5453463A5720
:1004600055523A4D533D256C750A004D434F3A4263
:10047000474E3A494E4954204F4B2C5453503D253A
:10048000750A004D434F3A42474E3A5354500A00C2
:100490004D434F3A42474E3A4246520A004D434F6F
:1004A0003A42474E3A494E4954204E4F44452C4318
:1004B000503D524E4E4E412D2D2D2C52454C3D253A
:1004C000752C5645523D322E332E310A004D434F86
:1004D0003A50494D3A4E4F4445205245473D2575C7
:1004E0000A00215453463A4D53473A52454C204D49
:1004F00053472C4E5245500A005453463A4D5347E9
:100500003A5243562043420A005453463A4D534709
:100510003A42430A005453463A4D53473A41434BFB
:100520000A00215453463A4D53473A504F4E472004
:10053000524543562C494E4143544956450A0054AE
:1005400053463A4D53473A504F4E47205245435633
:100550002C48503D25750A005453463A4D53473AAE
:1005600050494E4745442C49443D25752C48503D43
:1005700025750A00215453463A4D53473A46504197
:100580005220494E4143544956450A005453463A75
:100590004D53473A46504152204F4B2C49443D253C
:1005A000752C443D25750A00215453463A4D534756
:1005B0003A494420544B20494E56414C49440A0084
:1005C0005453463A4D53473A41434B205245510A02
:1005D00000215453463A4D53473A505645522C2524
:1005E00075213D25750A00215453463A4D53473A2B
:1005F0004C454E3D25752C4558503D25750A0054F7
:1006000053463A4D53473A524541442C25752D25C2
:10061000752D25752C733D25752C633D25752C7422
:100620003D25752C70743D25752C6C3D25752C73FE
:10063000673D25753A25730A000000000800020195
:1006400000000304070000000000000000214D43EB
:100650004F3A534E443A4E4F4445204E4F54205249
:1006600045470A0000000000250028002B0000007C
:100670000000240027002A000404040404040404E5
:10068000020202020202030303030303010204083D
:1006900010204080010204081020010204081020EC
:1006A00020005B1B11241FBECFEFD8E0DEBFCDBF03
:1006B00011E0A0E0B1E0E0EBF4E402C005900D929F
:1006C000A23DB107D9F724E0A2EDB1E001C01D922F
:1006D000A533B207E1F713E0C2E5D3E004C02197E8
:1006E000FE010E943C22C135D107C9F70E94201AA1
:1006F0000C9456220C9400008091CE021F928F938E
:100700008091CD021F928F938091CC021F928F9384
:1007100085E392E09F938F930E946E198091DF0191
:1007200084608093DF018091E00180788093E00114
:10073000E091D301F091D4018DB79EB708960FB622
:10074000F8949EBF0FBE8DBF309709F009940895AD
:1007500082E691E09F938F930E946E19EFEDF1E096
:100760008081877F8F7E80831092DB011092DC0175
:100770001092DD011092DE010F900F9044E050E0E6
:1007800060E070E08CEC92E00C94B121FC0183817C
:1007900087708860838384818F718062848367839C
:1007A000CF0108950F931F93CF93DF93EC01611551
:1007B000710561F0FB0101900020E9F73197E61B1C
:1007C000F70BE931F10518F0E9E101C0E0E00E2F87
:1007D00010E08B81282F2770C80133E0880F991F04
:1007E0003A95E1F7822B8B838C818F718C83EE237A
:1007F00029F0A801CE0107960E944722FE01E00FD2
:10080000F11F1782CE01DF91CF911F910F910895B3
:100810008091DF0184FD0C94C50D0895E091D50110
:10082000F091D601309721F00280F381E02D0994F8
:1008300008950F931F930E940D140091D7011091FA
:10084000D8012091D9013091DA01601B710B820B24
:10085000930B1F910F9108959C018091D501909168
:10086000D6018217930751F09091DF019F71909309
:10087000DF013093D6012093D50105C08091DF01BF
:10088000805E8093DF01E091D501F091D601309731
:1008900021F00190F081E02D09950E940D146093E4
:1008A000D7017093D8018093D9019093DA0108950C
:1008B0000F931F930E9419042091E00120772037A5
:1008C00029F000E117E220E030E004C000E61AEE73
:1008D00020E030E0061717072807390770F48CE886
:1008E00092E09F938F930E946E190F900F908BE16F
:1008F00091E01F910F910C942C041F910F9108957A
:100900008091E0018F70863060F084E592E09F93E3
:100910008F930E946E190F900F9085E191E00C94D7
:100920002C0408958091E1018F3F79F10E940D140C
:100930006093DB017093DC018093DD019093DE0115
:1009400089E292E09F938F930E946E199091E1014A
:100950008091CE020F900F909817A1F01F929F9355
:100960001F928F9381E192E09F938F930E946E1963
:100970008091E1018093CE020F900F900F900F9025
:100980000F900F9081E191E01DC00E941904613D1C
:10099000774081059105C0F08091DF01803618F421
:1009A0008DE091E00FC082E092E09F938F930E94D0
:1009B0006E198091DF01877F8093DF010F900F9088
:1009C00085E191E00C942C0408958091CC028F3F36
:1009D00059F08EEE91E09F938F930E946E190F90C5
:1009E0000F908DE091E018C00E941904613D77409E
:1009F0008105910598F08091DF01803618F489E037
:100A000091E00AC080EE91E09F938F930E946E194F
:100A10000F900F9085E091E00C942C0408950E94B3
:100A20001904613D77408105910520F48091DF0133
:100A300081FF08958091CD028F3F81F08FEB91E08F
:100A40009F938F930E946E198091DF018E7F809318
:100A5000DF010F900F9089E091E019C08091DF01D4
:100A6000803658F48BE991E09F938F930E946E1922
:100A70000F900F9085E191E00AC08FEA91E09F937B
:100A80008F930E946E190F900F9085E091E00C9467
:100A90002C04CF93DF931F92CDB7DEB7698320E09C
:100AA00041E0BE016F5F7F4F0E9437190F90DF91C9
:100AB000CF91089529986EE080E20E94490584E272
:100AC00093E20197F1F7089529986CE080E20C9485
:100AD00049058091E001982F9077903759F0982F31
:100AE00092959F709F5F97709295907F8F78892BDA
:100AF0008093E0018091E001829587701F928F932F
:100B00008BE792E09F938F930E946E198091DF0193
:100B10008B7F8F7E8093DF018DE692E09F938F9392
:100B20000E946E1981E793E09F938F930E946E1944
:100B30008DB79EB708960FB6F8949EBF0FBE8DBFB7
:100B40000C9464056FE080E20E94490560911901F0
:100B50006F3F19F08AE20E944905299A0895CF92C1
:100B6000DF92EF92FF920F931F93CF93DF93F82EB4
:100B7000EB018091CC0288834B8142FD06C04695F3
:100B80004695469507E0040F01C000E21091CF02A0
:100B90001170299880E091E00197F1F76EE080E212
:100BA0000E94490584EC90E00197F1F76F2D8AE2ED
:100BB0000E9449056F2D80E30E94490581EE0E9445
:100BC00068198FEFF81611F0112311F080EB01C0B6
:100BD00080EA402F013208F040E220E0BE010E948E
:100BE0003719299AC12CD12C8FEF0E946819082F30
:100BF000807321F491E0C91AD108B1F7299860E314
:100C000087E20E94490504FF03C081EE0E94681933
:100C10000E94A20505FD11E081E09FEFF91280E03E
:100C2000182B8C818770833019F48D81813129F0E4
:100C3000CE010E94FE11FC0102C0E4E7F1E01111B7
:100C400003C06FE771E002C06CE771E05091E00112
:100C50005F709B8192FBEE24E0F8492F4695469504
:100C600046959C81C92EC294C69487E0C822DD8037
:100C700097700E81BA81A88189812091CF0220FDD1
:100C800005C0111106C026E831E005C024E831E0B6
:100C900002C021EB31E0FF93EF937F936F931F929C
:100CA0005F931F92EF921F924F931F92CF921F92CA
:100CB000DF921F929F931F920F931F92BF931F92D9
:100CC000FF921F92AF931F928F933F932F938CE0CD
:100CD00093E09F938F930E946E198DB79EB74E96A7
:100CE0000FB6F8949EBF0FBE8DBF812FDF91CF91BD
:100CF0001F910F91FF90EF90DF90CF9008950F9389
:100D00001F93CF938C01FC0182819091DF0190FFB2
:100D10000BC08F3F51F188EE92E09F938F930E941A
:100D20006E190F900F9035C0811103C0C091CD0294
:100D30001DC08F3FD1F0B8010E94AF05C82F882396
:100D400049F088ED92E09F938F930E946E190F9067
:100D50000F9027C085EC92E09F938F930E946E19AD
:100D6000C091CD020F900F9001C0CFEFB8018C2F32
:100D70000E94AF059091CD02C91312C09091E0017D
:100D8000811109C081E0890F8F70907F982B90931B
:100D9000E001C0E006C0907F9093E001C1E001C097
:100DA000C82F8C2FCF911F910F9108952091DF01B3
:100DB00022FD0C947F068EEF92E09F938F930E940A
:100DC0006E190F900F9080E0089589EF91E09F9346
:100DD0008F930E946E198FEF8093E101EFEDF1E0A8
:100DE00080818860808328E143E06FEF80E00E948B
:100DF000491161E00E94C6030F900F900C947F068A
:100E0000CF9388ED91E09F938F930E946E190F907E
:100E10000F908091CC028F3F01F50E940D146F3F1F
:100E200019F060931F0102C010921F01C0911F01B1
:100E30008CEC91E09F938F930E946E1923E043E026
:100E40006C2F80E00E94491161EB71E00E94D20397
:100E50000F900F90CF910C947F06CF91089581E968
:100E600091E09F938F930E946E19EFEDF1E08081E6
:100E7000897F81608083ECECF2E08FEF8283818355
:100E800027E043E06FEF0E94491161EB71E00E949F
:100E9000D2030F900F900C947F06CF93C82F8FEF43
:100EA0008C0F8E3F08F5C093CC02C093190163E00C
:100EB00082E20E94490561E081E20E9449050E94A8
:100EC000A2056C2F80E090E00E94D1211F92CF9369
:100ED0008EE992E09F938F930E946E190F900F906E
:100EE0000F900F9081E010C01F92CF9380EB92E0A3
:100EF0009F938F930E946E198FEF8093CC020F9077
:100F00000F900F900F9080E0CF91089521E041E085
:100F100060E070E00C94371986E00E948607853205
:100F200031F485E00E94860791E08C3409F090E06E
:100F3000892F0895CF93219A229A29982A9ACFB778
:100F4000F8948091D201811124C0E2E8F6E0849106
:100F5000E6E9F6E09491E82FF0E0EE0FFF1FE2598A
:100F6000F94FA591B491EC91E92321F461E08AE075
:100F70000E9461138AE00E9474118CB580618CBD5F
:100F80008CB580648CBD8DE00E9474118BE00E9452
:100F900074118091D2018F5F8093D201CFBF0E94E4
:100FA0005A0563E083E20E9449056FE584E20E94EE
:100FB00049056CE485E20E94490565E286E20E94EB
:100FC000490564E08DE30E9449058DE10E94860792
:100FD000843041F063E780E50E94490564E08DE3D9
:100FE0000E9449050E948C07882309F449C062E0E9
:100FF00082E20E94490560E081E20E94490563E0C7
:101000008CE30E9449058FEF8093000120E045E0CA
:1010100060E071E08BE20E94371920E045E060E07B
:1010200071E08AE20E94371920E045E060E071E05B
:1010300080E30E94371982EE0E94681981EE0E94B7
:10104000681960E787E20E94490580E891E09F9374
:101050008F930E946E198091DF0180618093DF0180
:101060008091CF028E7F8093CF028091CC020F902F
:101070000F908F3F71F00E944D0781110AC00CC084
:101080008CE691E09F938F930E946E190F900F90C2
:1010900003C085E191E002C085E091E0CF910C941E
:1010A0002C048F929F92AF92BF92CF92DF92EF92D9
:1010B000FF92CF93DF938091CA03877088628093F9
:1010C000CA038091CB03806E8093CB0380E090E0D5
:1010D000A0EFB1E48093CE039093CF03A093D0030D
:1010E000B093D103C1E0C093D20387EC93E00E9498
:1010F000DE128091A903877088628093A903809192
:10110000AA03806E8093AA0380E090E0A0E7B1E498
:101110008093AD039093AE03A093AF03B093B0035D
:10112000C093B10386EA93E00E94DE121F928FEF14
:101130008F931F928F931F928F931F928F931F9263
:101140001F921F921F9283E18F9388E88F938CEAFE
:1011500093E09F938F930E946E198091DF012DB7CA
:101160003EB7205F3F4F0FB6F8943EBF0FBE2DBF76
:1011700082FD27C08EE993E09F938F930E946E19A2
:101180000E940D146B017C010F900F9080E090E0A5
:10119000DC012091DF0122FD4FC088389341A10579
:1011A000B10508F098C0A8950E940E040E9408049A
:1011B0000E940D14DC01CB018C199D09AE09BF09F9
:1011C000E8CF88E8C82E83E1D82EE12CF12C81E706
:1011D00093E09F938F930E946E190E9464058FE0A5
:1011E000C80ED11CE11CF11C0F900F90C1E0D0E0A3
:1011F00080911A018F3F09F041C020E1C216D1044D
:10120000E104F104D8F189E094E0980F4E0102C0A6
:10121000880C991C9A95E2F7A12CB12CC814D9041A
:10122000EA04FB0438F00E94AE19C818D908EA088D
:10123000FB08DECF8150E8CF883833E19307A10562
:10124000B10508F048C028E8C22E23E1D22EE12CD7
:10125000F12CC81AD90AEA0AFB0AFF92EF92DF9230
:10126000CF928EE893E09F938F930E946E190F9018
:101270000F900F900F900F900F90A9CF80911A01AF
:101280008F3F11F080911A019FEF90931A01282F40
:10129000082E000C330B3F938F938EE793E09F93C0
:1012A0008F930E946E1984E693E09F938F930E9420
:1012B0006E190F900F900F900F900F900F90DF917D
:1012C000CF91FF90EF90DF90CF90BF90AF909F9025
:1012D0008F900C945A05DF91CF91FF90EF90DF90A3
:1012E000CF90BF90AF909F908F9008952BE043E0F8
:1012F0006FEF80E00E94491168E871E00E94D2031C
:101300000E94D6062CE043E06FEF80E00E94491176
:1013100063E971E00E94D2030E94D60667E080E094
:101320000E94C81266E081E00C94C8120F931F93CC
:10133000CF93DF9367E971E080ED92E00E94E914BA
:101340004AE06CE470E080E090E00E94FE146FEAF6
:1013500071E080ED92E00E94E91480E180938003C7
:1013600092E09093810390918503911114C0909124
:101370008603911110C09091870391110CC0909138
:101380008803911108C090E49093860380938703AB
:1013900080E58093880364E670E080E090E00E943E
:1013A000D31310927D0389E793E00E943B170097C7
:1013B00009F060C080918103823028F080917D0324
:1013C000886080937D0340E362E070E089E793E00A
:1013D0000E94CE1565E070E080E090E00E94D3139B
:1013E00040E362E070E089E793E00E94CE1561E09F
:1013F00070E080E090E00E94D31340E362E070E090
:1014000089E793E00E94CE1561E070E080E090E013
:101410000E94D31380917D0384FD07C040E262E007
:1014200070E089E793E00E94CE1560917D036062D1
:1014300089E793E00E945F0C84E080937E036CE078
:1014400089E793E00E945F0C61E089E793E00E94E6
:101450005F0C82E080937F0366E089E793E00E945F
:101460005F0CEC016FEF89E793E00E949A152097DB
:1014700059F101C0EC01D195C195D1098DE00E94CF
:10148000741100E010E00C171D07BCF461E08DE062
:101490000E94611364E670E080E090E00E94D31344
:1014A00060E08DE00E9461136AEF70E080E090E000
:1014B0000E94D3130F5F1F4FE6CF6CED75E080E005
:1014C00090E00E94D313DACF62EB71E089E793E0FA
:1014D0000E94E91461E089E793E00E94581163ECEF
:1014E00071E089E793E00E94E9146FED89E793E0EA
:1014F0000E94F30B66EC71E089E793E0DF91CF91F6
:101500001F910F910C94E914CF932FE043E06FEFFC
:1015100080E00E94491161EB71E00E94D203E8EE85
:10152000F3E0838187708061838384818F71806C15
:10153000848381E087831086CF010E94D6068FE0E6
:101540000E94191461E18FEF0E94C812C091CD0270
:1015500026E043E06FEF80E00E9449116C2F0E946B
:10156000C6030E94D60686E00E941914CF910C94FF
:101570007609CF9380914E0281FD27C00E94840A94
:1015800087E593E09F938F930E946E1980914E029E
:10159000816080934E020F900F90C4E02AE143E0F7
:1015A0006FEF80E00E94491162E00E94C6030E9432
:1015B000D6068BE10E941914811102C0C15071F747
:1015C00080914E02826080934E02CF910895FC017B
:1015D000538D448D252F30E0842F90E0821B930B98
:1015E000541710F0CF96089501970895FC01918D3E
:1015F000828D981761F0828DDF01A80FB11D5D9675
:101600008C91928D9F5F9F73928F90E008958FEFE2
:101610009FEF0895FC01918D828D981731F0828D96
:10162000E80FF11D858D90E008958FEF9FEF0895ED
:10163000FC01918D228D892F90E0805C9F4F821B51
:1016400091098F739927089580E090E0892B29F004
:101650000E94CE1081110C94000008958DEF9FEF31
:1016600008958DEF9FEF089580E090E0089585ED57
:101670008093BC008091BC0084FDFCCF1092A80236
:10168000089540910802262F30E0240F311D2132A9
:101690003105DCF42091A8022430C9F4FC0180E07B
:1016A00090E0861758F4309108022191DC01A8518E
:1016B000BE4FA30FB11D2C930196F3CF809108026A
:1016C000680F6093080280E0089581E0089582E049
:1016D0000895089508950895E0912C0280912B02B9
:1016E000E81730F4F0E0E35DFD4F808190E008956D
:1016F0008FEF9FEF089590912C0280912B02981705
:1017000050F4E92FF0E0E35DFD4F208130E09F5F72
:1017100090932C0202C02FEF3FEFC90108958091F2
:101720002B0290E020912C02821B91090895CF9208
:10173000DF92EF92FF920F931F93CF93DF937C0181
:10174000CB018A012091A902222389F0EB016B01D0
:10175000C40ED51ECC15DD0569F06991D701ED9158
:10176000FC910190F081E02DC7010995F3CF642F22
:101770000E94410BC801DF91CF911F910F91FF9003
:10178000EF90DF90CF900895CF93DF931F92CDB766
:10179000DEB769832091A9022223D1F02091CB02E8
:1017A000203240F021E030E0FC013383228380E0EE
:1017B00090E015C08091AA02E82FF0E0E555FD4FBA
:1017C000998190838F5F8093AA028093CB0205C09A
:1017D00061E0CE0101960E94410B81E090E00F9004
:1017E000DF91CF9108958F929F92AF92BF92EF9227
:1017F000FF920F931F93CF93DF93EC01462FE88165
:10180000F9810484F585E02D61E070E009957C01A3
:101810008C889D88AE88BF880E94AE13688F798FB0
:101820008A8F9B8F8C8E9D8EAE8EBF8E01E010E0D6
:10183000EF2811F000E010E08B85882391F0898576
:101840008F5F89879F81891760F019868A858F5FEE
:101850008A879885891708F01A866A85CE010E94C2
:101860005811C801DF91CF911F910F91FF90EF9018
:10187000BF90AF909F908F900895FC01848DDF0101
:10188000A80FB11DA35ABF4F2C91848D90E00196F3
:101890008F739927848FA689B7892C93A089B189E2
:1018A0008C91837080648C93938D848D981306C083
:1018B0000288F389E02D80818F7D808308958F9247
:1018C0009F92AF92BF92EF92FF921F93CF93DF93BD
:1018D000EC01162FE881F9810484F585E02D462F6F
:1018E00060E070E009957C011150123038F41986DF
:1018F0001A8688889988AA88BB8804C08C889D88A5
:10190000AE88BF880E94AE13688F798F8A8F9B8FB5
:101910008C8E9D8EAE8EBF8EC701DF91CF911F91B1
:10192000FF90EF90BF90AF909F908F9008951F927F
:101930000F920FB60F9211242F933F934F935F9303
:101940006F937F938F939F93AF93BF93EF93FF9387
:101950008091B900887F803609F49CC068F5883290
:1019600009F45BC090F4803109F454C038F4882342
:1019700009F4F6C0883009F44DC0F6C0883109F486
:101980004CC0803209F45DC0EFC0803409F468C0F7
:1019900048F4803309F455C0883309F0E5C08093DA
:1019A000A602D8C0803509F44FC0883509F45DC05F
:1019B000883409F0D9C0D6C0883909F4C7C0A8F462
:1019C000883709F467C038F4883609F463C0803773
:1019D00009F460C0C9C0883809F4B8C0803909F476
:1019E0005FC0803809F0C0C05BC0803B09F486C08E
:1019F00038F4803A09F466C0883A09F47FC0B4C06C
:101A0000803C09F4A7C0883C09F4A4C0883B09F4D1
:101A10008AC0AAC08091830210C09091A5028091D3
:101A2000A402981770F5E091A50281E08E0F8093D3
:101A3000A502F0E0EC57FD4F80818093BB0085EC60
:101A400086C08093A6028EC0E091A50281E08E0F31
:101A50008093A5028091BB00F0E0EC57FD4F80839E
:101A60009091A5028091A4026EC0E091A50281E050
:101A70008E0F8093A5028091BB00F0E0EC57FD4FE4
:101A800080838091A70281116DC081E080938202E2
:101A900084EA61C083E08093A80210922A02CFCF2B
:101AA00080912A02803208F051C0E0912A0281E040
:101AB0008E0F80932A028091BB00F0E0E65FFD4F1D
:101AC0008083BDCF85EC8093BC001092A8028091EA
:101AD0002A02803230F4E0912A02F0E0E65FFD4F06
:101AE000108260912A0270E0E091E601F091E70136
:101AF0008AE092E0099510922A0236C084E0809331
:101B0000A8021092090210920802E091E401F091FB
:101B1000E501099580910802811105C081E080935B
:101B200008021092E801E091090281E08E0F809393
:101B30000902F0E0E851FE4F80818093BB00909154
:101B4000090280910802981708F479CF85E88093FC
:101B5000BC000AC085EC8093BC001092A80204C0AF
:101B60001092A6020E94370BFF91EF91BF91AF91A7
:101B70009F918F917F916F915F914F913F912F91A5
:101B80000F900FBE0F901F9018952F923F924F927B
:101B90005F926F927F928F929F92AF92BF92CF92FD
:101BA000DF92EF92FF920F931F93CF93DF9336E074
:101BB000E32E40E0242E40E0342E44244A94552461
:101BC000539453E0652E52E0752E87E10E948607FC
:101BD00080FD6EC2EA94EE2009F46AC221E041E081
:101BE00060E070E080E60E943719082F813220F013
:101BF00082EE0E94681900E021E0402F69E074E065
:101C000081E60E94371960E487E20E9449058091CD
:101C10000C04F82EF694F694F69429E12F1510F49E
:101C200029E1F22E82FD04C097E0992E9F0C02C09C
:101C300080E2982E10910D041770C0910E04D0917F
:101C40000A04D0900904C0900B04133011F4C13180
:101C500029F089E094E00E94FE1102C084E791E03F
:101C6000AF2CB12C9F938F9380910C0482FB88271B
:101C700080F91F928F931F92FF9280910D0482959D
:101C8000869587701F928F931F92CF931F921F93F9
:101C900080910F041F928F931F92CF921F92DF9219
:101CA0001F92DF938FEF95E09F938F930E946E19A1
:101CB0008DB79EB746960FB6F8949EBF0FBE8DBFE8
:101CC000901639F01F929F921F920F9387EE95E026
:101CD0000DC020910C04822F8370823091F01F92EE
:101CE00092E09F931F928F9381ED95E09F938F9346
:101CF0000E946E190F900F900F900F900F900F9001
:101D000064CF8091E00180688093E0018091CC02F3
:101D1000C81257C0822F8695869586958A3108F01D
:101D200089E138E0839FC00111242770822B8093C2
:101D30000C04F501E75FFB4F178280910D0483FFD0
:101D400021C080EC95E09F938F930E946E1981E2F1
:101D5000E9E0F4E0A8EEB3E001900D928A95E1F796
:101D60008091EC03877F80618093EC038091CC02AB
:101D70008093E903D093EA0388EE93E00E94D606AD
:101D80000F900F9090910D0494FD0AC0133081F4D0
:101D900080910E0421EF280F233008F061C015CF89
:101DA00085E195E09F938F930E946E190F900F909D
:101DB0002114310409F409CF89E094E00E94000065
:101DC00004CF3FEFC31243C089E095E09F938F9308
:101DD0000E946E190F900F90133031F58091DF0142
:101DE00082FF03C0C73009F4F0CEC83009F4EDCE4D
:101DF000C43109F0EACE8091CD02D812E6CE0E941D
:101E00000D147370882799270E94D313C091CD02B7
:101E100025E143E06FEF8D2F0E9449116C2F0E9446
:101E2000C6030E947F06D1CE8091CD02D812CDCEBE
:101E30002114310409F4C9CE89EF94E09F938F9364
:101E40000E946E1989E094E00E94000006C082EEB4
:101E500094E09F938F930E946E190F900F90B5CED0
:101E6000C43081F480910F0490911F01891711F003
:101E70008F3F29F40E949A120E944D07A6CE88EA4D
:101E800095E023C0C83019F5C091DF01C0FF1BC029
:101E90000E949A128F3F09F498CE8F5F8F3F09F40A
:101EA00094CE9091CE02891708F08FCEC1FD8DCED1
:101EB0008093CE02D093CD021F928F931F92DF9317
:101EC0008CE895E013CF84E795E09F93C3CFC831AA
:101ED000C1F40E949A121F928F931F92DF9388E59C
:101EE00095E09F938F930E946E1929E143E06FEF75
:101EF0008D2F0E94491161E00E94C6030E947F0657
:101F0000F9CEC931A9F48091DF0183FF0EC0877F2C
:101F10008093DF010E949A128093E1011F928F93B8
:101F20008FE395E09F938F9342C082E295E091CF3B
:101F3000CE3109F44ACECD31A9F42FE143E06FEF61
:101F400080E00E944911FC0184818F718064848348
:101F5000838187708061838380E09FEF9087878390
:101F6000CF015FCF20910A0421119EC08D3059F41A
:101F700098E088E10FB6F894A895809360000FBEB2
:101F800090936000FFCF8B31C9F40E949A1291E0C8
:101F9000811101C090E080914E0290FB80F9809306
:101FA0004E021F929F932DEC34E03F932F930E949B
:101FB0006E190F900F900F900F9007CE863099F406
:101FC0009091100481E0992319F09D3409F080E08C
:101FD00080934D0241E050E063E071E08DE492E0D7
:101FE0000E94C121F2CD833119F40E94840AEDCD03
:101FF0008231C1F40E9419044B015C0126E143E0E7
:102000006FEF80E00E944911FC0184818F71806A2A
:102010008483838187708062838387829086A18690
:10202000B28615C08230B9F422E043E06FEF80E061
:102030000E944911FC0184818F71806A84838381AD
:102040008770806283834782508661867286CF0163
:102050000E94D606BACD813001F520E030E0232B76
:1020600009F4B3CD929596959770953049F46091A7
:1020700010047091110480911204909113040AC00D
:10208000911105C080E194E00E94181C03C060E03B
:1020900070E0CB010E94000098CD8A3009F495CD04
:1020A0008C3109F085CE91CD8A3109F081CE8DCD6C
:1020B000DF91CF911F910F91FF90EF90DF90CF9024
:1020C000BF90AF909F908F907F906F905F904F9058
:1020D0003F902F9008950F931F93CF93DF93182F66
:1020E000D0E0C0E28C2F0E94EF110E949311082FC4
:1020F00061E070E080E090E00E94D313011103C022
:102100001D17D9F0DF5FCF5FC83261F7C8E38C2FAE
:102110000E94EF110E949311082F61E070E080E0AF
:1021200090E00E94D313011103C01D1731F0DF5F4F
:10213000CF5FC03461F780E001C08C2FDF91CF9179
:102140001F910F9108950895CF92DF92EF92FF9221
:102150000F931F93CF93DF936C017A018B01C0E043
:10216000D0E0CE15DF0581F0D8016D918D01D6014B
:10217000ED91FC910190F081E02DC6010995892B2C
:1021800011F02196EECF7E01C701DF91CF911F9113
:102190000F91FF90EF90DF90CF90089580ED92E047
:1021A0000E94180B21E0892B09F420E0822F08956A
:1021B0000E944222EF92FF920F931F93CF93DF93DF
:1021C000EC0181E0888F9B8D8C8D981305C0E88988
:1021D000F989808185FD26C0F62E0B8D10E00F5FFA
:1021E0001F4F0F731127E02E8C8DE8120CC00FB615
:1021F00007FCFACFE889F989808185FFF5CFCE0108
:102200000E943D0CF1CF8B8DFE01E80FF11DE35ACA
:10221000FF4FF0829FB7F8940B8FEA89FB8980818A
:1022200080620AC09FB7F894EE89FF896083E889CD
:10223000F98980818370806480839FBF81E090E012
:10224000DF91CF911F910F91FF90EF900895CF9361
:10225000DF93EC01888D8823C9F0EA89FB898081AE
:1022600085FD05C0A889B9898C9186FD0FC00FB680
:1022700007FCF5CF808185FFF2CFA889B9898C91C1
:1022800085FFEDCFCE010E943D0CE7CFDF91CF91CE
:102290000895E8EEF3E09091CC0291838283668307
:1022A000258384814770807E482B4483CF01089525
:1022B000FC018085681710F06FEF680F93859923F4
:1022C00051F09781911105C06F5F6817E8F360E0E6
:1022D000FBCF11866287DF01A60FB11D1C966C91A2
:1022E0006068CF010C945F0C90E0FC01E457F94F5B
:1022F0002491FC01E858F94F8491882399F090E0EB
:10230000880F991FFC01E259F94FA591B491FC0186
:10231000EC59F94F859194918FB7F894EC91E22B99
:10232000EC938FBF08953091CB02313208F04BC04F
:102330008091A8028111FCCF9091330422E0209378
:10234000A80221E02093A7022FEF2093A60210926B
:10235000A5023093A402EBEAF2E0A4E8B2E020E0A8
:10236000321721F041914D932F5FFACF10928302E3
:1023700020918302990F922B909383029091820275
:10238000913061F410928202909183029093BB008D
:102390009091BC0093FDF8CF95EC01C095EE909321
:1023A000BC009091A8029230E1F39091A6029F3F69
:1023B00079F08091A602803241F08091A6028033AC
:1023C00031F084E005C081E003C082E001C083E019
:1023D0001092AA021092CB021092A902089591E0E5
:1023E0009093A902809333041092AA021092CB0218
:1023F0000895682F8DE693E00C94C40B0F931F9300
:10240000CF93DF93EC018C8182958695877091F450
:102410004B8146954695469550E0BE01695F7F4FDA
:102420008FE492E00E944722EB81E695E695E695DF
:10243000F0E076C0813031F48F814AE06FE472E0E1
:1024400090E007C0823041F44AE06FE472E08F818F
:1024500098850E943F1C67C0833041F44AE06FE4D6
:1024600072E08F8198850E94981C5DC0843051F481
:102470006F81788589859A852AE04FE452E00E9431
:102480004A1C51C0853051F46F81788589859A85C1
:102490002AE04FE452E00E94761C45C0873011F0DC
:1024A00020E030C02B85293008F028E06F81788546
:1024B00089859A850FE412E042E00E94DA1B33C05E
:1024C000E22FF0E0AF01440F551FDA01A15BBD4FD1
:1024D000EC0FFD1F8781082E000C990B34E09595B9
:1024E00087953A95E1F78F708A3098F4805D8C93E8
:1024F000DA01A05BBD4F87818F708A3060F4805D08
:102500008C932F5FEB81E695E695E6952E17C0F24A
:1025100004C0895CECCF895CF3CFF0E0EE0FFF1FC5
:10252000E15BFD4F10828FE492E0DF91CF911F912C
:102530000F91089580910D04829586958770813062
:1025400019F4809110040895811105C080E194E090
:102550000E94FA1B089580E008950F931F93CF9374
:10256000DF938C01C0E0D0E0F801EC0FFD1F649117
:10257000662341F080ED92E00E94DA10892B11F081
:102580002196F2CFCE01DF91CF911F910F91089547
:10259000CF93DF93262F8F3F19F0C1EBD1E002C01C
:1025A000CBECD1E040E0682F80E00E944911BE01F1
:1025B0000E94D203DF91CF910C94D606FC0180914A
:1025C000CC0281839481907F9160948380914E02AC
:1025D00080FF03C0CF010C94D6068DE496E09F9354
:1025E0008F930E946E190F900F9080E00895CF9303
:1025F000FC01C4A560FF02C086A1C82B61FF02C018
:1026000087A1C82B62FF02C080A5C82B63FF02C050
:1026100081A5C82B4130510511F483A1C82B85A198
:102620008C2B90E00E94F9116C2F8DE693E0CF91F6
:102630000C94C40B9091A8029111FCCF91E090935F
:10264000A8029093A7022FEF2093A6021092A50252
:102650001092A4029093830290918302880F892B99
:102660008093830280918202813061F41092820211
:10267000809183028093BB008091BC0083FDF8CFE2
:1026800085EC01C085EE8093BC008091A80281306A
:10269000E1F38091A502811103C09091A50201C0D0
:1026A00091E0E4E8F2E0ADE2B2E080E0891721F0E9
:1026B00021912D938F5FFACF10922C0280932B02E1
:1026C000089590E0FC01E75CF94F2491FC01E45788
:1026D000F94F3491FC01E858F94FE491EE2309F4E5
:1026E0003CC0222339F1233091F038F42130A9F095
:1026F000223001F584B58F7D12C0273091F028304B
:10270000A1F02430B9F4809180008F7D03C08091C6
:1027100080008F77809380000DC084B58F7784BD53
:1027200009C08091B0008F7703C08091B0008F7D89
:102730008093B000F0E0EE0FFF1FEC59F94FA59128
:10274000B4919FB7F894611104C08C9130953823EF
:1027500002C0EC913E2B3C939FBF08953FB7F89485
:1027600080912F0490913004A0913104B0913204F3
:1027700026B5A89B05C02F3F19F00196A11DB11DDC
:102780003FBFBA2FA92F982F8827820F911DA11D17
:10279000B11DBC01CD0143E0660F771F881F991F53
:1027A0004A95D1F708958F929F92AF92BF92CF92A0
:1027B000DF92EF92FF926B017C010E94AE134B01FE
:1027C0005C01C114D104E104F104F1F00E94AE13E4
:1027D000DC01CB0188199909AA09BB09883E9340FD
:1027E000A105B10570F321E0C21AD108E108F10892
:1027F00088EE880E83E0981EA11CB11CC114D10480
:10280000E104F10419F7DDCFFF90EF90DF90CF9056
:10281000BF90AF909F908F9008952FB7F8946091DC
:102820002B0470912C0480912D0490912E042FBFC5
:102830000895CF92DF92EF92FF92CF93DF93D82F3C
:102840000E940D146B017C0181E0D11180E0809326
:102850000E04C0E00E940D14DC01CB018C199D090F
:10286000AE09BF09803D9740A105B10590F4C111A3
:1028700010C0A8950E940E040E94080480910D04C7
:102880008770833039F7C1E080910E048D13E1CF5A
:10289000E1CF8C2FDF91CF91FF90EF90DF90CF9021
:1028A00008951F920F920FB60F9211242F933F930A
:1028B0008F939F93AF93BF9380912B0490912C049F
:1028C000A0912D04B0912E0430912A0426E0230F0C
:1028D0002D3720F40296A11DB11D05C029E8230F54
:1028E0000396A11DB11D20932A0480932B0490937D
:1028F0002C04A0932D04B0932E0480912F0490916A
:102900003004A0913104B09132040196A11DB11D93
:1029100080932F0490933004A0933104B093320439
:10292000BF91AF919F918F913F912F910F900FBECB
:102930000F901F9018951F920F920FB60F921124AF
:102940002F933F934F935F936F937F938F939F93B7
:10295000AF93BF93EF93FF93E0912201F091230196
:102960000995FF91EF91BF91AF919F918F917F91C9
:102970006F915F914F913F912F910F900FBE0F90EC
:102980001F9018951F920F920FB60F9211242F933C
:102990003F934F935F936F937F938F939F93AF93E7
:1029A000BF93EF93FF93E0912001F09121010995EE
:1029B000FF91EF91BF91AF919F918F917F916F9117
:1029C0005F914F913F912F910F900FBE0F901F90ED
:1029D00018956115710579F0FB0101900020E9F768
:1029E0003197AF01461B570BDC01ED91FC91028042
:1029F000F381E02D099480E090E008958F929F92FA
:102A0000AF92BF920F931F93CF93DF93CDB7DEB7F3
:102A1000A1970FB6F894DEBF0FBECDBF19A242300A
:102A200008F44AE08E010F5D1F4F842E912CA12CDB
:102A3000B12CA50194010E941A22E62FB901CA0106
:102A400001501109EA3014F4E05D01C0E95CD801DD
:102A5000EC93232B242B252B61F7B80180ED92E01A
:102A60000E94E914A1960FB6F894DEBF0FBECDBF49
:102A7000DF91CF911F910F91BF90AF909F908F905A
:102A800008951F920F920FB60F9211242F933F9328
:102A90004F935F936F937F938F939F93AF93BF9366
:102AA000EF93FF9380ED92E00E943D0CFF91EF9138
:102AB000BF91AF919F918F917F916F915F914F9156
:102AC0003F912F910F900FBE0F901F9018951F925E
:102AD0000F920FB60F9211242F938F939F93EF9322
:102AE000FF93E091E002F091E1028081E091E60243
:102AF000F091E70282FD12C090818091E9028F5F20
:102B00008F732091EA02821751F0E091E902F0E020
:102B1000E053FD4F958F8093E90201C08081FF91C2
:102B2000EF919F918F912F910F900FBE0F901F905B
:102B300018950895CF93DF93FC0182A5882349F16E
:102B400093A5662319F0913029F402C0911102C0B7
:102B500084A701C014A6EF0180A10E94EF1189A1F2
:102B60009AA1029721F489E090E00E94F9116CA5E6
:102B70008DE693E00E94C40B0E94931121E030E0A7
:102B8000811102C020E030E088279927821B930B37
:102B900002C08DEF9FEFDF91CF9108954F925F922A
:102BA0006F927F928F929F92AF92BF92EF92FF921D
:102BB0001F93CF93DF93EC0188A1882309F44EC0C3
:102BC00089A19AA1892B09F449C0142F7B014C8C4F
:102BD0005D8C6E8C7F8C888C998CAA8CBB8C8DE2E2
:102BE000881A9108A108B1080E94AE13DC01CB013C
:102BF00088199909AA09BB0984159505A605B70581
:102C000098F388A10E94EF1189A19AA1029721F45B
:102C100089E090E00E94F911612F70E084E07595E1
:102C200067958A95E1F7A701CE010E94F71282E02D
:102C3000E816F10431F0612F6F70A701CE010E94F8
:102C4000F7120E94931121E030E0811102C020E0D0
:102C500030E088279927821B930B02C08CEF9FEFEF
:102C6000DF91CF911F91FF90EF90BF90AF909F9019
:102C70008F907F906F905F904F9008954F925F92EA
:102C80006F927F928F929F92AF92BF92EF92FF923C
:102C90000F931F93CF93DF93EC011CA588A188238A
:102CA00009F4D4C089A19AA1009709F4CFC0029772
:102CB00009F4CFC08CA1882309F4CBC07B014C8CD4
:102CC0005D8C6E8C7F8C888C998CAA8CBB8C8DE2F1
:102CD000881A9108A108B1080E94AE13DC01CB014B
:102CE00088199909AA09BB0984159505A605B70590
:102CF00098F38EA1182B8FA1182B88A5182B89A5C6
:102D0000182BEA94EF2811F48BA1182B8CA1182B07
:102D100088A10E94EF11612F8DE693E00E94C40B01
:102D20000E949311882319F00FEF1FEF81C088A133
:102D30000E94EF118DA1812B90E00E94F9110E9459
:102D400093118111F1CF88A190E00E941A138DE6B2
:102D500093E00E947B0B7C0197FDE6CF88A10E9447
:102D6000EF11612F8DE693E00E94C40B0E94931136
:102D70008111DACF8EA190E08E219F21892B11F451
:102D800000E001C000E18FA190E08E219F21892BFE
:102D900009F0006288A590E08E219F21892B09F01F
:102DA000006489A590E0E822F922EF2809F0006884
:102DB00088A10E94EF118DA1812B90E00E94F91152
:102DC0000E9493118111B0CF88A190E00E941A1344
:102DD0008DE693E00E947B0B7C0197FDA5CF88A137
:102DE0000E94EF11612F8DE693E00E94C40B0E94B8
:102DF0009311811199CF8EA190E08E219F21892B73
:102E000009F001608FA190E08E219F21892B09F0AC
:102E1000026088A590E08E219F21892B09F0046033
:102E200089A590E0E822F922EF2809F0086010E077
:102E300088A10E94EF116CA58DE693E00E94C40B5F
:102E40000E949311882339F08FEF01C08CEF9FEF20
:102E500003C08DEFFCCFC801DF91CF911F910F917F
:102E6000FF90EF90BF90AF909F908F907F906F906A
:102E70005F904F9008950F931F93CF93DF93EC01D2
:102E800010922C0210922B021092AA021092CB02E6
:102E90001092A80281E08093A7021092820261E062
:102EA00082E10E94611361E083E10E9461138091DD
:102EB000B9008E7F8093B9008091B9008D7F809397
:102EC000B90080E28093B80085E48093BC0089E675
:102ED0009BE09093E5018093E4018AE69BE0909368
:102EE000E7018093E60188A181110AC08091340432
:102EF00091E0980F909334040E946B1088A309C04E
:102F00000E94EF110E949311882319F08CEF9FEF1C
:102F1000A9C188A1811109C08091340491E0980F62
:102F2000909334040E946B1088A318A1112371F3AD
:102F300089A19AA1892B09F05AC1812F0E94EF1112
:102F400060E08DE693E00E94C40B6FEF8DE693E0A6
:102F50000E94C40B0E949311812F0E94EF1160E028
:102F60008DE693E00E94C40B0E949311812F90E0A4
:102F70000E941A138DE693E00E947B0B8F3F910510
:102F800041F031E020E0892B09F030E0832F922FCF
:102F900002C082E090E09AA389A3009709F424C1BB
:102FA000019709F0A5C088A10E94EF116FEF8DE68F
:102FB00093E00E94C40B0E94931188A190E00E94AC
:102FC0001A138DE693E00E947B0B8C0188A10E946E
:102FD000EF116BEF8DE693E00E94C40B0E949311FA
:102FE00088A190E00E941A138DE693E00E947B0B6B
:102FF00098012770332727303105B1F4807F992756
:10300000803F910589F483E0169507958A95E1F74D
:1030100061E00627017043E057E066E075E0E4E018
:1030200022E0F1E030E02CC0C8018077992780379A
:10303000910509F015C188A10E94EF116FEE8DE690
:1030400093E00E94C40B0E94931188A190E00E941B
:103050001A138DE693E00E947B0B8F7099270F97D0
:1030600019F026E034E002C024E036E00095001FAD
:103070000027001F47E053E062E071E0E0E0F5E088
:1030800081E090E0DC0101C0AA0F3A95EAF7ABA31A
:10309000DC0101C0AA0FFA95EAF7ACA3DC0102C07B
:1030A000AA0FBB1F2A95E2F7ADA39C0101C0220F16
:1030B000EA95EAF72EA39C0101C0220F7A95EAF760
:1030C0002FA39C0101C0220F6A95EAF728A79C0153
:1030D00001C0220F5A95EAF729A701C0880F4A9527
:1030E000EAF78AA70BA7013009F47CC01CA67FC0B1
:1030F00088A10E94EF1160E08DE693E00E94C40B6E
:103100008FEF90E00E94F9110E94931188A10E9414
:10311000EF1186E090E00E94F9118FEF90E00E949D
:10312000F9110E94931188A10E94EF1189E090E0AB
:103130000E94F9110E94931188A190E00E941A1335
:103140008DE693E00E947B0B8F3761F086FF12C003
:1031500081FD86C021E032E043E054E065E076E0A6
:10316000E7E00FC027E036E045E054E063E072E0BE
:10317000E1E007C026E033E042E051E060E077E0C4
:10318000E4E081E090E0DC0102C0AA0FBB1FEA95F9
:10319000E2F7ABA31CA2FC0101C0EE0F7A95EAF79F
:1031A000EDA3FC0102C0EE0FFF1F6A95E2F7EEA34C
:1031B000BC0101C0660F5A95EAF76FA3BC0102C0BB
:1031C000660F771F4A95E2F768A7AC0101C0440F6C
:1031D0003A95EAF749A701C0880F2A95EAF78AA726
:1031E00091E09BA78CA703C08FEF9FEF3BC088A106
:1031F0000E94EF1189A19AA1029701F585E090E064
:103200000E94F91180E290E00E94F9110E9493114E
:1032100088A10E94EF1160E08DE693E00E94C40B4C
:1032200060E08DE693E00E94C40B0E94931188A198
:103230000E94EF1189E090E00E94F91160E08DE6B4
:1032400093E00E94C40B0E94931121E030E08111B1
:1032500002C020E030E088279927821B930B02C030
:103260008DEF9FEFDF91CF911F910F91089590E522
:103270009CBD1DBC2A98E0E1F0E03197F1F78EBDCE
:1032800000000DB407FEFDCF8EB5FB019FEF41504E
:10329000C8F0222361F09EBD00000DB407FEFDCFF3
:1032A0008EB56115710599F380833196F0CFDF01FA
:1032B000119680818EBD00000DB407FEFDCF8EB546
:1032C000FD01E5CF2A9AE0E1F0E03197F1F70895AA
:1032D00020E040E060E070E00C943719EF92FF923C
:1032E0000F931F93CF93DF93CDB7DEB7C857D109A4
:1032F0000FB6F894DEBF0FBECDBF8E010F571F4F24
:10330000F801E190F1908F010E940D144AE00E94B3
:10331000FE1480EA96E00E94AD129801A70168E7CA
:1033200070E0CE0101960E94B21CBE016F5F7F4F1C
:1033300080ED92E00E94E91480ED92E00E94271156
:10334000C858DF4F0FB6F894DEBF0FBECDBFDF9178
:10335000CF911F910F91FF90EF900895CF93C82FB9
:1033600080ED92E00E94271180917A008F77809300
:103370007A0090916000CF3FB1F0C3FD02C088E0B9
:1033800001C088E2C770C82B88E10FB6F894A895F1
:10339000809360000FBEC0936000809160008065E4
:1033A000809360000BC00FB6F894A89580916000E0
:1033B000886180936000109260000FBE83B7817FA8
:1033C000846083BFF89483B7816083BF85B78066CC
:1033D00085BF8F7D85BF7894889583B78E7F83BFA7
:1033E000F894A89580916000886180936000909324
:1033F0006000789480917A00806880937A00CF9101
:1034000008951F920F920FB60F9211240F900FBEC6
:103410000F901F901895CF93DF93FC0110821182BB
:103420001282148215821682DC0117968AE1ED0160
:1034300019928A95E9F782E08383DF91CF9108950D
:10344000789484B5826084BD84B5816084BD85B57F
:10345000826085BD85B5816085BD80916E0081608B
:1034600080936E0010928100809181008260809331
:103470008100809181008160809381008091800033
:103480008160809380008091B10084608093B1005E
:103490008091B00081608093B00080917A00846058
:1034A00080937A0080917A00826080937A00809184
:1034B0007A008E7F80937A0080917A008068809372
:1034C0007A001092C100A89580E090E0892B11F05D
:1034D0000E940000E091E002F091E10282E080832E
:1034E000E091DC02F091DD021082E091DE02F091C9
:1034F000DF0288E080831092E802E091E402F0911C
:10350000E50286E08083E091E202F091E3028081AF
:1035100080618083E091E202F091E3028081886023
:103520008083E091E202F091E302808180688083F1
:10353000E091E202F091E30280818F7D8083C0E11F
:10354000D0E0F12CFE01F595E795EE51FC4FE491AA
:10355000C0FFE295EF70E83008F075C0F0E0EE5182
:10356000FC4FF4906F2D80ED92E00E94DA102196CE
:10357000C23FD10539F78BED93E00E94AD126FEA9F
:1035800071E080ED92E00E94E9141F928FEF8F931B
:103590008DE994E09F938F930E946E1980914E0263
:1035A0008D7F80934E020F900F900F900F9080E0D0
:1035B00090E0892B51F080E994E09F938F930E94D3
:1035C0006E190E9400000F900F9041E050E063E000
:1035D00071E08DE492E00E94B1216FEF81E090E014
:1035E0000E94D1218091E0018F788093E0011092B8
:1035F000D6011092D5018BE191E00E942C0489EB59
:103600009AE09093D4018093D3011F921F921F924E
:103610001F928BE594E09F938F930E946E190E94F6
:103620000D140F900F900F900F900F900F900E941D
:103630000D140E940E040E940804A8958091DF01D9
:1036400082FFF5CF0CC01BEF1E0F00E06F2D80ED49
:1036500092E00E94DA100F5F0117C0F388CF83E871
:1036600094E09F938F930E946E190E949609909107
:10367000DF010F900F9092FB882780F992FD0E9446
:103680008C071F928F938BE694E09F938F930E94F9
:103690006E19A8950F900F900F900F90A8950E940B
:1036A0000E048091DF0184FD0E94C50D0E94510827
:1036B0000E94240BF3CFCF93DF93E0EDF2E013826F
:1036C000128288EE93E0A0E0B0E084839583A68325
:1036D000B78328E231E03183208325EC30E0358761
:1036E000248724EC30E03787268720EC30E0318BCC
:1036F000208B21EC30E0338B228B22EC30E0358BB9
:10370000248B26EC30E0378B268B118E128E138E95
:10371000148EEDE6F3E01382128284839583A683F0
:10372000B7838AE391E09183808389E094E00E94EB
:103730000B1A88EE93E00E940B1A87EC93E00E942C
:103740000B1AE7ECF3E01682C1E0C58386EA93E04A
:103750000E940B1AE6EAF3E0C6831582C9E7D3E0BC
:103760001B821A828CE491E09983888380ED97E034
:10377000A0E0B0E0888B998BAA8BBB8B86E290E0AF
:10378000A0E0B0E08C8B9D8BAE8BBF8B0E94AE1304
:10379000688F798F8A8F9B8F1C8E1D8E1E8E1F8E39
:1037A00082E691E09983888318A21AA219A2DF9178
:1037B000CF910895EF920F931F93CF93DF93E8017A
:1037C00047FD02C034E001C034E1042E000C550B6B
:1037D00057FF03C0519541955109E32E022F242F25
:1037E000AE010E94BF1ECE01DF91CF911F910F91BC
:1037F000EF900895FC0188279927E89421912032C1
:10380000E9F3293010F02E30C8F32B3241F02D327D
:1038100039F4689404C00E946E1C820F911D21919E
:1038200020532A30C0F31EF4909581959F4F089540
:103830001F93FC0199278827BC01E894119110324D
:10384000E9F3193010F01E30C8F31B3251F01D326D
:1038500049F4689406C00E94591C610F711D811DB6
:10386000911D119110531A30B0F33EF4909580954C
:10387000709561957F4F8F4F9F4F1F910895BB2784
:103880004A3031F4992322F4BDE2909581959F4FFF
:103890000C94991CBB272A3051F4992342F4BDE2C1
:1038A00090958095709561957F4F8F4F9F4F0C94A9
:1038B000771C592F482F372F262F660F771F881F09
:1038C000991F660F771F881F991F620F731F841F30
:1038D000951F660F771F881F991F08957AE0979F9D
:1038E000902D879F802D910D11240895BB27FA01FB
:1038F000A62F6217710581059105330B30FB66F029
:10390000AA27660F771F881F991FAA1FA21710F0FA
:10391000A21B63953850A9F7A05DAA3308F0A95DF2
:10392000A19336F7B111B1931082CA010C9407210B
:10393000BB27FB015527AA27880F991FAA1FA41789
:1039400010F0A41B83955051B9F7A05DAA3308F07D
:10395000A95DA193009779F7B111B1931192CB01B1
:103960000C940721AEE0B0E0E8EBFCE10C94F1210F
:103970008C01FA018EE08C831A83098377FF02C0E1
:1039800060E070E8CB0101979E838D83A901BF01A0
:10399000CE0101960E94DE1C4D815E8157FD0AC05A
:1039A0002F813885421753070CF49A01F801E20F72
:1039B000F31F10822E96E4E00C940D22ABE0B0E0F1
:1039C000E4EEFCE10C94E3216C017B018A01FC0133
:1039D00017821682838181FFCCC1CE0101963C0102
:1039E000F6019381F70193FD859193FF81917F010A
:1039F000882309F4BAC1853239F493FD859193FF88
:103A000081917F01853229F4B60190E00E9417214F
:103A1000E7CF912C212C312CFFE1F315D8F08B321C
:103A200079F038F4803279F08332A1F4232D2061CB
:103A30001DC08D3261F0803369F4232D216016C0E2
:103A4000832D8260382EE32DE4603E2E2AC0F32DB4
:103A5000F8601DC037FC2DC020ED280F2A3040F043
:103A60008E32B9F436FC81C1232D2064322E19C068
:103A700036FE06C08AE0989E200D1124922E11C0B9
:103A8000EAE02E9E200D1124222EF32DF0623F2E0F
:103A900008C08C3621F4832D8068382E02C0883609
:103AA00041F4F70193FD859193FF81917F0181118D
:103AB000B3CF982F9F7D9554933028F40C5F1F4F00
:103AC0009FE399830DC0833631F0833771F08335DE
:103AD00009F059C021C0F801808189830E5F1F4F12
:103AE00088248394912C530113C02801F2E04F0ED7
:103AF000511CF801A080B18036FE03C0692D70E032
:103B000002C06FEF7FEFC5010E94FC204C018201D3
:103B1000F32DFF773F2E16C0280122E0420E511CE4
:103B2000F801A080B18036FE03C0692D70E002C0AC
:103B30006FEF7FEFC5010E94F1204C01F32DF0687B
:103B40003F2E820133FC1BC0822D90E0881699061F
:103B5000B0F4B60180E290E00E9417212A94F4CFDD
:103B6000F50137FC859137FE81915F01B60190E048
:103B70000E94172121102A9421E0821A91088114B1
:103B8000910471F7E8C0843611F0893641F5F801E7
:103B900037FE07C060817181828193810C5F1F4F66
:103BA00008C060817181072E000C880B990B0E5F95
:103BB0001F4FF32DFF763F2E97FF09C090958095FC
:103BC000709561957F4F8F4F9F4FF0683F2E2AE091
:103BD00030E0A3010E945321882E861845C0853706
:103BE00031F4232D2F7EB22E2AE030E025C0932D14
:103BF000997FB92E8F36C1F018F4883579F0B5C0A9
:103C0000803719F0883721F0B0C0E92FE061BE2E6F
:103C1000B4FE0DC0FB2DF460BF2E09C034FE0AC0F7
:103C2000292F2660B22E06C028E030E005C020E132
:103C300030E002C020E132E0F801B7FE07C0608149
:103C40007181828193810C5F1F4F06C060817181F9
:103C500080E090E00E5F1F4FA3010E945321882E49
:103C60008618FB2DFF773F2E36FE0DC0232D2E7FAD
:103C7000A22E891458F434FE0BC032FC09C0832DE7
:103C80008E7EA82E05C0B82CA32C03C0B82C01C072
:103C9000B92CA4FE0FC0FE01E80DF11D8081803318
:103CA00021F49A2D997EA92E09C0A2FE06C0B394D4
:103CB000B39404C08A2D867809F0B394A3FC11C094
:103CC000A0FE06C0B21488F4280C922C9B180EC0DB
:103CD000B21460F4B60180E290E00E941721B39420
:103CE000F7CFB21418F42B1802C0982C212CA4FE84
:103CF00010C0B60180E390E00E941721A2FE17C019
:103D0000A1FC03C088E790E002C088E590E0B6011E
:103D10000CC08A2D867859F0A1FE02C08BE201C04A
:103D200080E2A7FC8DE2B60190E00E941721891481
:103D300038F4B60180E390E00E9417219A94F7CFFF
:103D40008A94F301E80DF11D8081B60190E00E9494
:103D500017218110F5CF222009F442CEB60180E26E
:103D600090E00E9417212A94F6CFF6018681978170
:103D700002C08FEF9FEF2B96E2E10C94FF21A9E0A8
:103D8000B0E0E5ECFEE10C94E9216A01122FB02EBF
:103D90002BE3201720F0FF24F394F00E02C02CE355
:103DA000F22E0F2D27E0AE014F5F5F4F0E941920CA
:103DB000BC014981842F8970813031F0E1FC06C05B
:103DC000E0FE06C090E205C09DE203C09BE201C098
:103DD00090E05E2D507143FF3CC0911102C083E022
:103DE00001C084E0811718F4212F281B01C020E0B6
:103DF00051110BC0F601822F30E2882319F0319364
:103E00008150FBCFC20ED11C20E0992329F0D601AE
:103E10009C93F60131966F01C6010396E2FE0AC03B
:103E20003EE4D6013C9341E411964C9311971296CF
:103E30003C9306C03EE6F601308341E6418332837F
:103E4000FC01322F40E2332309F442C04193315048
:103E5000FACF42FF44C0911102C083E001C084E068
:103E6000811718F4212F281B01C020E051110BC02D
:103E7000F601822F30E2882319F031938150FBCF75
:103E8000C20ED11C20E0992329F0D6019C93F601A3
:103E900031966F01C6010396E2FE0BC039E4D601EC
:103EA0003C933EE411963C93119736E412963C9372
:103EB00007C039E6F60130833EE6318336E63283C9
:103EC000FC01322F40E2332319F041933150FBCFF4
:103ED000FC01E20FF11D10828EEF9FEFA6C021E0E2
:103EE00030E0911102C020E030E0161617061CF4F5
:103EF000FB01319602C0E1E0F0E02E0F3F1FBB2036
:103F000021F0EB2DF0E0319602C0E0E0F0E02E0F62
:103F10003F1FE12FF0E02E173F071CF4121B212F4B
:103F200001C020E08E2D887159F4F601822F30E215
:103F3000882319F031938150FBCFC20ED11C20E0B1
:103F4000992329F0D6019C93F60131966F01511106
:103F50000BC0F601822F90E3882319F091938150D2
:103F6000FBCFC20ED11C20E00F2D060F9A81342FFB
:103F7000307144FF03C0913309F40150101624F44A
:103F8000093018F008E001C001E0AB0177FF02C082
:103F900040E050E0FB01E41BF50BA1E0B0E0AC0F0A
:103FA000BD1FEA0FFB1F8EE2A82E4B01801A91085D
:103FB0000B2D10E01195019511094F3FBFEF5B07E5
:103FC00021F4D601AC9211966D01641775072CF09F
:103FD0008416950614F4818101C080E34150510993
:103FE0003196D60111967D014017510724F0D60174
:103FF0008C936701E2CF6417750739F4963320F488
:10400000953319F4311101C081E3F6018083F70182
:10401000822F90E2882319F091938150FBCFF70112
:10402000E20FF11D108280E090E02996ECE00C9404
:104030000522283008F027E03327DA01990F311DD7
:1040400087FD916000966105710539F432602E5F3D
:104050003D9330E32A95E1F708959F3F30F0803893
:104060007105610509F03C5F3C5F3D93913008F0BC
:104070008068911DDF93CF931F930F93FF92EF9270
:10408000192F987F9695E92F96959695E90FFF271A
:10409000EE53FF4F99273327EE24FF24A701E701B2
:1040A00005900894079428F4360FE71EF81E491F60
:1040B000511D660F771F881F991F0694A1F7059061
:1040C000079428F4E70EF81E491F561FC11D770FED
:1040D000881F991F661F0694A1F70590079428F47E
:1040E000F80E491F561FC71FD11D880F991F661F45
:1040F000771F0694A1F70590079420F4490F561FE7
:10410000C71FD81F990F661F771F881F0694A9F72E
:1041100084911095177041F0D695C795579547959E
:10412000F794E7941A95C1F7E8E6F0E068941590E3
:10413000159135916591959105907FE27395E11800
:10414000F10A430B560BC90BD009C0F7E10CF11E65
:10415000431F561FC91FD01D7EF4703311F48A957A
:10416000E6CFE894015030F0080F0AF40027021758
:1041700008F4202F2395022F7A3328F079E37D93DA
:104180002A95E9F710C07D932A9589F606949795AC
:104190006795379517951794E118F10A430B560B5D
:1041A000C90BD00998F023957E9173957A3308F066
:1041B00070E37C932013B8F77E9170617D9330F0AB
:1041C000839571E37D9370E32A95E1F71124EF90D5
:1041D000FF900F911F91CF91DF91992787FD9095C7
:1041E0000895FC010590615070400110D8F780954A
:1041F00090958E0F9F1F0895FC01615070400190B3
:104200000110D8F7809590958E0F9F1F0895DC01BF
:10421000FC01672F71917723E1F7329704C07C91FD
:104220006D9370836291AE17BF07C8F308950F9323
:104230001F93CF93DF93FB01238121FD03C08FEFF9
:104240009FEF2CC022FF16C0468157812481358103
:104250004217530744F4A081B1819D012F5F3F4F66
:10426000318320838C93268137812F5F3F4F3783A3
:10427000268314C08B01EC01FB010084F185E02D45
:104280000995892BE1F6D80116968D919C91179787
:10429000019617969C938E931697CE01DF91CF913E
:1042A0001F910F910895FA01AA27283051F120316A
:1042B00081F1E8946F936E7F6E5F7F4F8F4F9F4FBA
:1042C000AF4FB1E03ED0B4E03CD0670F781F891FFC
:1042D0009A1FA11D680F791F8A1F911DA11D6A0FCA
:1042E000711D811D911DA11D20D009F468943F917D
:1042F0002AE0269F11243019305D3193DEF6CF017C
:104300000895462F4770405D4193B3E00FD0C9F741
:10431000F6CF462F4F70405D4A3318F0495D31FDAE
:104320004052419302D0A9F7EACFB4E0A695979501
:10433000879577956795BA95C9F7009761057105D7
:1043400008959B01AC010A2E069457954795379521
:104350002795BA95C9F7620F731F841F951FA01D7B
:104360000895DC01CB01FC01F999FECF06C0F2BD36
:10437000E1BDF89A319600B40D9241505040B8F723
:104380000895DC01A40FB51F4150504048F0CB0107
:10439000840F951F2E910E94D22141505040D0F79A
:1043A0000895262FF999FECF92BD81BDF89A019705
:1043B00000B4021639F01FBA20BD0FB6F894FA9A6D
:1043C000F99A0FBE08952F923F924F925F926F928B
:1043D0007F928F929F92AF92BF92CF92DF92EF9295
:1043E000FF920F931F93CF93DF93CDB7DEB7CA1B16
:1043F000DB0B0FB6F894DEBF0FBECDBF09942A8841
:10440000398848885F846E847D848C849B84AA84E8
:10441000B984C884DF80EE80FD800C811B81AA8175
:10442000B981CE0FD11D0FB6F894DEBF0FBECDBF40
:10443000ED010895A1E21A2EAA1BBB1BFD010DC0C0
:10444000AA1FBB1FEE1FFF1FA217B307E407F50744
:1044500020F0A21BB30BE40BF50B661F771F881F20
:10446000991F1A9469F760957095809590959B01B6
:10447000AC01BD01CF010895EE0FFF1F0590F4912F
:10448000E02D099481E090E0F8940C945622FB0111
:10449000DC014150504048F001900D920020C9F7D6
:1044A00001C01D9241505040E0F70895F894FFCFAD
:1044B00000FCE1A8A8690558040007E504E5069298
:1044C000047C0380042F070F05FFFFA8039A07FF52
:1044D000A310A31000000000DA10A410E70A2711AF
:1044E000180BF60A0A0B00000000C40B970B340BE4
:1044F0006B0B8F0B7B0B6C0B00000000F30BA410FD
:10450000340B9915340B310BD8102E0B2E0B0000E9
:104510000000F30BA410340B99153B173E16CE1573
:104520009A152E0B3C4E4F4E43453E004F4B004ECE
:1045300041434B003F002100477265656E686F750F
:10454000736500302E320063757272656E7420726E
:104550006164696F206368616E6E656C3A20000D5E
:104560000A00486920477265656E686F757365203B
:104570003A29003332002034302500322E332E31D8
:02458000000039
:00000001FF
